:040000007BEF00F0A2
:100008003982FACF25F0FBCF26F0D9CF27F0DACF07
:1000180028F0F3CF29F0F4CF2AF0F2AA16EF00F077
:1000280018EF00F023EF00F0F2A41DEF00F01FEF2F
:1000380000F023EF00F075EC09F06DEF00F09DA0E3
:1000480028EF00F02AEF00F035EF00F09EA02FEF28
:1000580000F031EF00F035EF00F058EC09F06DEFEB
:1000680000F09DA83AEF00F03CEF00F051EF00F0EF
:100078009EA841EF00F043EF00F051EF00F002D8E6
:100088004FEF00F00500FA6E3750FD6E3850FE6EE7
:10009800FF6AFA5012006DEF00F09DAA56EF00F0CB
:1000A80058EF00F06DEF00F09EAA5DEF00F05FEFF3
:1000B80000F06DEF00F002D86BEF00F00500FA6E6B
:1000C8003550FD6E3650FE6EFF6AFA5012006DEF25
:1000D80000F02AC0F4FF29C0F3FF28C0DAFF27C0C8
:1000E800D9FF26C0FBFF25C0FAFF39921100AAEFFD
:0200F80009F00D
:10100000000A1100000000000000000000000000C5
:1010100000000000000000000000000000000000D0
:101020000000000000000000001414F8130000008D
:1010300000001F50020DF350600FD96EDA6ADE6AAD
:10104000DD6AABA226EF08F028EF08F045EF08F0C4
:101050001F50020DF350600FD96EDA6A0001DF8471
:1010600001500210D8B437EF08F039EF08F045EF1F
:1010700008F002D845EF08F00500FA6E0150FD6E49
:101080000250FE6EFF6AFA501200ABA44AEF08F05D
:101090004CEF08F069EF08F01F50020DF350600F9D
:1010A000D96EDA6A0001DF8203500410D8B45BEF16
:1010B00008F05DEF08F069EF08F002D869EF08F07A
:1010C0000500FA6E0350FD6E0450FE6EFF6AFA5082
:1010D0001200AECF23F01F283F0B246E1E502418A1
:1010E000D8A475EF08F077EF08F079EF08F084EFF7
:1010F00008F0000E1F24D96EDA6A010EDA2223C02E
:10110000DFFF24C01FF01D2A12009D9A320E356E9B
:10111000100E366E9D98200E376E130E386E480EE8
:10112000A76E900EAB6E260EAC6ECF0EAF6E7D6AC4
:10113000B60E2B6E140E2C6E0AEC0AF09C0E2B6E63
:10114000140E2C6EFCEC09F0000E0A6E000E096EF7
:10115000226A216A400E206E1F6A1E6A1D6A9D8ADD
:101160001200D08EF1849F809F889F8AF292F18C2A
:10117000000E2B6E000E2C6E49EC0AF0F090F18AF6
:10118000000E2B6E000E2C6E44EC0AF0F092F188EB
:10119000000E2B6E000E2C6E3FEC0AF0F094F186E0
:1011A000000E2B6E000E2C6E3AEC0AF012000B4A69
:1011B0000C2A0C5009E1060E0B5CD8A0E2EF08F0F7
:1011C000E4EF08F0FAEF08F0000E0C6E000E0B6E64
:1011D00089B4EDEF08F0F0EF08F0010EF1EF08F040
:1011E000000EFF0A236E2346234689502318FB0B6B
:1011F0002318896E12000D4A0E2A0E5009E1C90EFD
:101200000D5CD8A006EF09F008EF09F01DEF09F01A
:10121000000E0E6E000E0D6E89B211EF09F014EF84
:1012200009F0010E15EF09F0000EFF0A236E2346A8
:1012300089502318FD0B2318896E120018EC0AF050
:10124000F28EF28CF28CF60E2B6E110E2C6E35ECAB
:101250000AF0AE0E2B6E110E2C6E35EC0AF055EC2A
:101260000AF051EC0AF057EC0AF053EC0AF037EFB1
:1012700009F07BEF00F0CD909E0ECF6E580ECE6E33
:10128000CF502D6ECE50116E2DC012F0AA6AB20E44
:101290002B6E140E2C6E2BEC0AF0000E2B6E000E33
:1012A0002C6E30EC0AF09E909D80370ECD6E1200B1
:1012B0009E9011C023F012C024F0D5EC09F03150FB
:1012C0003210D8B466EF09F068EF09F074EF09F056
:1012D00002D874EF09F00500FA6E3150FD6E3250FD
:1012E000FE6EFF6AFA50120012001450D76E13C03F
:1012F000D6FF33503410D8B480EF09F082EF09F0F4
:101300008EEF09F002D88EEF09F00500FA6E335027
:10131000FD6E3450FE6EFF6AFA501200F294120015
:10132000400E206096EF09F098EF09F0A8EF09F061
:10133000400E2124D96EDA6A010EDA22DF50AD6E3A
:1013400021283F0B236E23C021F0202AA9EF09F0AA
:101350009D98120001EE00F0800EEE6AE806FDE1B5
:1013600000EE60F0800EEE6AE806FDE100EE01F0AE
:10137000220EEE6AE806FDE13990399200011EEF77
:1013800009F0896A8A6A200E8B6E8C6A8D6A010E5A
:10139000926E1F0E936E800E946E956A966A1F0E63
:1013A0000F015B6F5A6BF2861200CDA4DAEF09F0E1
:1013B000DCEF09F0E4EF09F0CD902450CF6E23C0AC
:1013C000CEFFCD80E8EF09F02450CF6E23C0CEFFD2
:1013D0001200D59CD768B20ED66EFF0E146EB20EF8
:1013E000136EB40E2B6E140E2C6E35EC0AF0F294C4
:1013F000F28A970ED56E12002B502C10D8B403EF42
:101400000AF005EF0AF009EF0AF02BC001F02CC03A
:1014100002F012002B502C10D8B411EF0AF013EF89
:101420000AF017EF0AF02BC003F02CC004F01200F2
:1014300025EC0AF0C1EC09F0E9EC09F03BEC09F00D
:1014400085EC08F0B1EC08F01200620ED36ED26A9F
:101450009B6A9A6A12002BC031F02CC032F0120045
:101460002BC02FF02CC030F012002BC033F02CC05A
:1014700034F012002BC015F02CC016F012002BC057
:1014800017F02CC018F012002BC019F02CC01AF065
:1014900012002BC01BF02CC01CF01200AB98AB88C4
:1014A00012009D801200CD801200F28A1200D58EAB
:0814B0001200120012001200EC
:020000040030CA
:0E0000001D086F50FF8991FF0FC00FE00F40E9
:00000001FF
