:040000008DEF00F090
:100008005382FACF32F0FBCF33F0D9CF34F0DACFC6
:1000180035F0F3CF36F0F4CF37F0F6CF38F0F7CF2E
:1000280039F0F8CF3AF0F5CF3BF0F2AA1EEF00F026
:1000380020EF00F02BEF00F0F2A425EF00F027EFFF
:1000480000F02BEF00F091EC0CF077EF00F09DA0A2
:1000580030EF00F032EF00F03DEF00F09EA037EFF8
:1000680000F039EF00F03DEF00F056EC0CF077EFC0
:1000780000F09DA842EF00F044EF00F05AEF00F0C6
:100088009EA849EF00F04BEF00F05AEF00F002D8BD
:1000980058EF00F00500FA6E0001F851FD6EF951B5
:1000A800FE6EFF6AFA50120077EF00F09DAA5FEF2C
:1000B80000F061EF00F077EF00F09EAA66EF00F025
:1000C80068EF00F077EF00F002D875EF00F0050058
:1000D800FA6E0001F651FD6EF751FE6EFF6AFA5096
:1000E800120077EF00F03BC0F5FF3AC0F8FF39C0C7
:1000F800F7FF38C0F6FF37C0F4FF36C0F3FF35C04E
:10010800DAFF34C0D9FF33C0FBFF32C0FAFF539285
:060118001100A9EF0BF03D
:1010000000B8170000000000000000000000000011
:1010100000000000000000000000000000000000D0
:10102000000000000000000000221B061B00000062
:0D103000003F065B4F666D7D077F4F00009F
:10103E000001FE6FFEC03CF03D6A000E3F6E0A0ED0
:10104E003E6E66EC09F03C50026EFEC03CF03D6A0E
:10105E00000E3F6E0A0E3E6EC7EC09F03C50016E5C
:10106E004DC045F04EC046F04FC047F050C048F05E
:10107E00A00E496E860E4A6E010E4B6E000E4C6E21
:10108E00C9EC0AF04550096EA00E406E860E416EF8
:10109E00010E426E000E436E4DC03CF04EC03DF050
:1010AE004FC03EF050C03FF065EC0BF03CC045F039
:1010BE003DC046F03EC047F03FC048F0100E496EAE
:1010CE00270E4A6E000E4B6E000E4C6EC9EC0AF0E7
:1010DE004550086E100E406E270E416E000E426E89
:1010EE00000E436E4DC03CF04EC03DF04FC03EF082
:1010FE0050C03FF065EC0BF03CC045F03DC046F0F3
:10110E003EC047F03FC048F0E80E496E030E4A6EEF
:10111E00000E4B6E000E4C6EC9EC0AF04550076E79
:10112E00E80E406E030E416E000E426E000E436ED0
:10113E004DC03CF04EC03DF04FC03EF050C03FF0B1
:10114E0065EC0BF03CC045F03DC046F03EC047F0AC
:10115E003FC048F0640E496E000E4A6E000E4B6E94
:10116E00000E4C6EC9EC0AF04550066E640E406ED1
:10117E00000E416E000E426E000E436E4DC03CF0EE
:10118E004EC03DF04FC03EF050C03FF065EC0BF04E
:10119E003CC045F03DC046F03EC047F03FC048F071
:1011AE000A0E496E000E4A6E000E4B6E000E4C6E0D
:1011BE00C9EC0AF04550056E4DC03CF04EC03DF0F6
:1011CE004FC03EF050C03FF00A0E406E000E416E12
:1011DE00000E426E000E436E65EC0BF03C50046E3A
:1011EE000A0E036E12002C50020DF350600FD96ED2
:1011FE00DA6ADE6ADD6AABA207EF09F009EF09F0E1
:10120E0026EF09F02C50020DF350600FD96EDA6AFA
:10121E000001DF8410501110D8B418EF09F01AEF46
:10122E0009F026EF09F002D826EF09F00500FA6E54
:10123E001050FD6E1150FE6EFF6AFA501200ABA4F4
:10124E002BEF09F02DEF09F04AEF09F02C50020DAB
:10125E00F350600FD96EDA6A0001DF82125013105C
:10126E00D8B43CEF09F03EEF09F04AEF09F002D88E
:10127E004AEF09F00500FA6E1250FD6E1350FE6E25
:10128E00FF6AFA501200AECF30F02C283F0B316EB1
:10129E002B503118D8A456EF09F058EF09F05AEF39
:1012AE0009F065EF09F0000E2C24D96EDA6A010EF2
:1012BE00DA2230C0DFFF31C02CF02A2A1200416A38
:1012CE003FBE6EEF09F06CEF09F074EF09F03E6C63
:1012DE003F1ED8B03F2A010E416E3DBE7BEF09F096
:1012EE0079EF09F081EF09F03C6C3D1ED8B03D2A34
:1012FE00010E411A000E436E000E426E3E503F101C
:10130E00D8B48CEF09F08EEF09F0B6EF09F0010EAC
:10131E00406E96EF09F0D8903E363F36402A3FAEEB
:10132E009BEF09F09DEF09F092EF09F0D89042364D
:10133E0043363E503C5C3F503D58D8A0A9EF09F0D3
:10134E00ABEF09F0B0EF09F03E503C5E3F503D5A16
:10135E004280D8903F323E32402E9DEF09F04150F0
:10136E00D8B4BCEF09F0BEEF09F0C2EF09F0426C41
:10137E00431ED8B0432A42C03CF043C03DF0120099
:10138E00416A3DBECFEF09F0CDEF09F0D5EF09F080
:10139E003C6C3D1ED8B03D2A010E416E3FBEDCEFC7
:1013AE0009F0DAEF09F0E0EF09F03E6C3F1ED8B01D
:1013BE003F2A3E503F10D8B4E7EF09F0E9EF09F0AD
:1013CE000DEF0AF0010E406EF1EF09F0D8903E36A7
:1013DE003F36402A3FAEF6EF09F0F8EF09F0EDEF99
:1013EE0009F03E503C5C3F503D58D8A001EF0AF04A
:1013FE0003EF0AF007EF0AF03E503C5E3F503D5AB5
:10140E00D8903F323E32402EF8EF09F04150D8B41A
:10141E0013EF0AF015EF0AF019EF0AF03C6C3D1EBF
:10142E00D8B03D2A3CC03CF03DC03DF012009FECD0
:10143E000DF0F28EF28CF28C940E3C6E1A0E3D6E06
:10144E00BCEC0DF0E20E3C6E1A0E3D6EB2EC0DF0E1
:10145E00DEEC0DF0DAEC0DF0E0EC0DF0DCEC0DF066
:10146E00F7EC0CF0C7EC0CF0850E3C6E010E3D6EE9
:10147E000EEC0DF0520E3C6E1CEC0BF00001FD510B
:10148E000DE1400EFA5D420EFB590F0EFC59D8A02D
:10149E0053EF0AF055EF0AF05DEF0AF0000EFA6F07
:1014AE00000EFB6F000EFC6F000EFD6F3F0E5264C0
:1014BE0063EF0AF065EF0AF067EF0AF0400E526E26
:1014CE0085C14DF086C14EF04F6A506A52501FECE6
:1014DE0008F039EF0AF08DEF00F02950010FD96EA8
:1014EE00DA6ADF50316E8C6A899C899E8A9E080E5C
:1014FE00296084EF0AF086EF0AF0A9EF0AF08B9AC2
:10150E0029C030F0D8903032D890303230A092EFDF
:10151E000AF094EF0AF095EF0AF08A8E29C030F0A7
:10152E00D890303230A09EEF0AF0A0EF0AF0A1EF73
:10153E000AF0898E29A0A6EF0AF0A8EF0AF0A9EF0B
:10154E000AF0898C080E2918D8A4B0EF0AF0B2EF71
:10155E000AF0B3EF0AF08B8A3150310F306E30C083
:10156E00F6FF100EF76EF86A0800F5CF8CFF292AE9
:10157E00080E2964C5EF0AF0C7EF0AF0C8EF0AF0AB
:10158E00296A1200000E0101806F000E816F000E9D
:10159E00826F000E836F49504A104B104C10D8B416
:1015AE00DBEF0AF0DDEF0AF013EF0BF0010E846FA4
:1015BE00E7EF0AF0D89049364A364B364C36842B34
:1015CE004CAEECEF0AF0EEEF0AF0E1EF0AF0D89035
:1015DE0080378137823783374950455C4A504658A9
:1015EE004B5047584C504858D8A000EF0BF002EF24
:1015FE000BF00BEF0BF04950455E4A50465A4B50DC
:10160E00475A4C50485A8081D8904C324B324A320D
:10161E004932842FEEEF0AF080C145F081C146F0C9
:10162E0082C147F083C148F012003C50D96EDA6A8D
:10163E003D6AE7A101D03D8E800E3D16E6C03EF01C
:10164E00060E3F6ED8903E363F2E29EF0BF0400E21
:10165E003E16E5C040F0050E416ED8904036412E44
:10166E0034EF0BF0200E4016E4C042F0423AF00E7A
:10167E004216100E4216E3C043F0D8904336D8906F
:10168E004336D8904336080E4316E2C044F0D89045
:10169E004436D8904436040E44160001D890E135F5
:1016AE00456E020E4516E051010B451044104310D5
:1016BE00421040103E103D10DF6E1200405041109F
:1016CE0042104310D8B46EEF0BF070EF0BF0A0EF9A
:1016DE000BF0010E446E7AEF0BF0D8904036413687
:1016EE0042364336442A43AE7FEF0BF081EF0BF0C8
:1016FE0074EF0BF040503C5C41503D5842503E5808
:10170E0043503F58D8A08EEF0BF090EF0BF098EFB0
:10171E000BF040503C5E41503D5A42503E5A4350B1
:10172E003F5AD8904332423241324032442E81EFFA
:10173E000BF03CC03CF03DC03DF03EC03EF03FC023
:10174E003FF01200B00EF66E1B0EF76E000EF86E26
:10175E0000EEFAF010EE04F00900F5CFEEFFE550C2
:10176E00E150FAE1C40EF66E1B0EF76E000EF86E27
:10177E000900F5CF51F00900F5CF52F001EE00F05F
:10178E00800EEE6AE806FDE100EE60F0900EEE6A65
:10179E00E806FDE100EE01F02F0EEE6AE806FDE12F
:1017AE005390539200011EEF0AF09D9AF40E000121
:1017BE00F66F110EF76F9D985A0EF86F190EF96F9E
:1017CE00480EA76E900EAB6E260EAC6ECF0EAF6EA1
:1017DE007D6ACA0E3C6E1B0E3D6E91EC0DF0AA0E8C
:1017EE003C6E1B0E3D6E83EC0DF0000E196E000E5E
:1017FE00186E2F6A2E6A400E2D6E2C6A2B6A2A6A7C
:10180E009D8A12003D6E8D908D928D943DA012EFAB
:10181E000CF014EF0CF015EF0CF08D803DC03CF089
:10182E00D8903C323CA01EEF0CF020EF0CF021EFD4
:10183E000CF08D823DC03CF0D8903C32D8903C32BA
:10184E003CA02CEF0CF02EEF0CF02FEF0CF08D8453
:10185E001200D08EF1849F809F889F8AF292F18C25
:10186E00000E3C6E000E3D6ED0EC0DF0F090F18A45
:10187E00000E3C6E000E3D6ECBEC0DF0F092F1883A
:10188E00000E3C6E000E3D6EC6EC0DF0F094F1862F
:10189E00000E3C6E000E3D6EC1EC0DF012009E90DF
:1018AE001CC030F01DC031F036EC0DF00001F251CD
:1018BE00F311D8B465EF0CF067EF0CF073EF0CF08A
:1018CE0002D873EF0CF00500FA6EF251FD6EF35173
:1018DE00FE6EFF6AFA5012001200CD909E0ECF6E71
:1018EE00580ECE6ECF503E6ECE501C6E3EC01DF0CA
:1018FE00AA6AC60E3C6E1B0E3D6EB2EC0DF0000ECB
:10190E003C6E000E3D6EB7EC0DF09E909D80370E36
:10191E00CD6E12001F50D76E1EC0D6FF0001F451BF
:10192E00F511D8B49DEF0CF09FEF0CF0ABEF0CF06F
:10193E0002D8ABEF0CF00500FA6EF451FD6EF551C6
:10194E00FE6EFF6AFA501200F2941200400E2D60E5
:10195E00B3EF0CF0B5EF0CF0C5EF0CF0400E2E24EB
:10196E00D96EDA6A010EDA22DF50AD6E2E283F0BE9
:10197E00306E30C02EF02D2AC6EF0CF09D9812005E
:10198E003F6A010E09EC0CF0000E3D6E640E3C6ECB
:10199E00E0EC0CF0000E80B0010E0001E16F3F2A6A
:1019AE00070E3F64DDEF0CF0DFEF0CF0C8EF0CF02C
:1019BE001200E9EF0CF0030E3E6E980EE82EFED7E5
:1019CE003E2EFCD73C06D8A03D063C2806E13D281D
:1019DE00D8A4F4EF0CF0F6EF0CF0E2EF0CF01200DE
:1019EE008B9A0A0E016E0A0E026E0A0E036E0A0E14
:1019FE00046E0A0E056E0A0E066E0A0E076E0A0EAB
:101A0E00086E0A0E096E296A070E286E120080B043
:101A1E0013EF0DF016EF0DF0010E17EF0DF0000E97
:101A2E003E6E3F6A3CC0D9FF3DC0DAFF3EC0DEFFCE
:101A3E003FC0DDFF1200896A8A6A200E8B6E8C6AA7
:101A4E008D6A010E926E1F0E936E800E946E956AC5
:101A5E00966A1F0E0F015B6F5A6BF2861200CDA4B1
:101A6E003BEF0DF03DEF0DF045EF0DF0CD90315009
:101A7E00CF6E30C0CEFFCD8049EF0DF03150CF6E1E
:101A8E0030C0CEFF12000E4A0F2AF50E0E5C010E6C
:101A9E000F58D8A055EF0DF057EF0DF05BEF0DF08E
:101AAE00000E0F6E000E0E6E74EC0AF01200D59C36
:101ABE00D768F10ED66EFF0E1F6EF10E1E6EC80E9B
:101ACE003C6E1B0E3D6EBCEC0DF0F294F28A970E3E
:101ADE00D56E12000C4A0D2A0D5009E1330E0C5C26
:101AEE00D8A07CEF0DF07EEF0DF082EF0DF0000E22
:101AFE000D6E000E0C6E12003C503D10D8B48AEFE5
:101B0E000DF08CEF0DF090EF0DF03CC010F03DC0DD
:101B1E0011F012003C503D10D8B498EF0DF09AEF32
:101B2E000DF09EEF0DF03CC012F03DC013F0120010
:101B3E00ACEC0DF022EC0DF05EEC0DF074EC0CF054
:101B4E00DCEC0BF030EC0CF01200620ED36ED26AAD
:101B5E009B6A9A6A12003CC0F2F03DC0F3F012008C
:101B6E003CC0F0F03DC0F1F012003CC0F4F03DC0BE
:101B7E00F5F012003CC020F03DC021F012003CC038
:101B8E0022F03DC023F012003CC024F03DC025F0F1
:101B9E0012003CC026F03DC027F01200AB98AB8877
:101BAE0012004E4605009D801200CD801200F28A72
:0E1BBE001200D58E12000C0C12001200120044
:020000040030CA
:0E0000001D086F50FF8991FF0FC00FE00F40E9
:00000001FF
