:040000008DEF00F090
:100008005382FACF32F0FBCF33F0D9CF34F0DACFC6
:1000180035F0F3CF36F0F4CF37F0F6CF38F0F7CF2E
:1000280039F0F8CF3AF0F5CF3BF0F2AA1EEF00F026
:1000380020EF00F02BEF00F0F2A425EF00F027EFFF
:1000480000F02BEF00F0F2EC0CF077EF00F09DA041
:1000580030EF00F032EF00F03DEF00F09EA037EFF8
:1000680000F039EF00F03DEF00F0B7EC0CF077EF5F
:1000780000F09DA842EF00F044EF00F05AEF00F0C6
:100088009EA849EF00F04BEF00F05AEF00F002D8BD
:1000980058EF00F00500FA6E0001F851FD6EF951B5
:1000A800FE6EFF6AFA50120077EF00F09DAA5FEF2C
:1000B80000F061EF00F077EF00F09EAA66EF00F025
:1000C80068EF00F077EF00F002D875EF00F0050058
:1000D800FA6E0001F651FD6EF751FE6EFF6AFA5096
:1000E800120077EF00F03BC0F5FF3AC0F8FF39C0C7
:1000F800F7FF38C0F6FF37C0F4FF36C0F3FF35C04E
:10010800DAFF34C0D9FF33C0FBFF32C0FAFF539285
:060118001100DEEF0BF008
:10100000007C18000000000000000000000000004C
:1010100000000000000000000000000000000000D0
:10102000000000000000000000A81B8C1B00000056
:0D103000003F065B4F666D7D077F4F00009F
:10103E000001FE6FFEC03CF03D6A000E3F6E0A0ED0
:10104E003E6E66EC09F03C50026EFEC03CF03D6A0E
:10105E00000E3F6E0A0E3E6EC7EC09F03C50016E5C
:10106E004DC045F04EC046F04FC047F050C048F05E
:10107E00A00E496E860E4A6E010E4B6E000E4C6E21
:10108E00C9EC0AF04550096EA00E406E860E416EF8
:10109E00010E426E000E436E4DC03CF04EC03DF050
:1010AE004FC03EF050C03FF065EC0BF03CC045F039
:1010BE003DC046F03EC047F03FC048F0100E496EAE
:1010CE00270E4A6E000E4B6E000E4C6EC9EC0AF0E7
:1010DE004550086E100E406E270E416E000E426E89
:1010EE00000E436E4DC03CF04EC03DF04FC03EF082
:1010FE0050C03FF065EC0BF03CC045F03DC046F0F3
:10110E003EC047F03FC048F0E80E496E030E4A6EEF
:10111E00000E4B6E000E4C6EC9EC0AF04550076E79
:10112E00E80E406E030E416E000E426E000E436ED0
:10113E004DC03CF04EC03DF04FC03EF050C03FF0B1
:10114E0065EC0BF03CC045F03DC046F03EC047F0AC
:10115E003FC048F0640E496E000E4A6E000E4B6E94
:10116E00000E4C6EC9EC0AF04550066E640E406ED1
:10117E00000E416E000E426E000E436E4DC03CF0EE
:10118E004EC03DF04FC03EF050C03FF065EC0BF04E
:10119E003CC045F03DC046F03EC047F03FC048F071
:1011AE000A0E496E000E4A6E000E4B6E000E4C6E0D
:1011BE00C9EC0AF04550056E4DC03CF04EC03DF0F6
:1011CE004FC03EF050C03FF00A0E406E000E416E12
:1011DE00000E426E000E436E65EC0BF03C50046E3A
:1011EE000A0E036E12002C50020DF350600FD96ED2
:1011FE00DA6ADE6ADD6AABA207EF09F009EF09F0E1
:10120E0026EF09F02C50020DF350600FD96EDA6AFA
:10121E000001DF8410501110D8B418EF09F01AEF46
:10122E0009F026EF09F002D826EF09F00500FA6E54
:10123E001050FD6E1150FE6EFF6AFA501200ABA4F4
:10124E002BEF09F02DEF09F04AEF09F02C50020DAB
:10125E00F350600FD96EDA6A0001DF82125013105C
:10126E00D8B43CEF09F03EEF09F04AEF09F002D88E
:10127E004AEF09F00500FA6E1250FD6E1350FE6E25
:10128E00FF6AFA501200AECF30F02C283F0B316EB1
:10129E002B503118D8A456EF09F058EF09F05AEF39
:1012AE0009F065EF09F0000E2C24D96EDA6A010EF2
:1012BE00DA2230C0DFFF31C02CF02A2A1200416A38
:1012CE003FBE6EEF09F06CEF09F074EF09F03E6C63
:1012DE003F1ED8B03F2A010E416E3DBE7BEF09F096
:1012EE0079EF09F081EF09F03C6C3D1ED8B03D2A34
:1012FE00010E411A000E436E000E426E3E503F101C
:10130E00D8B48CEF09F08EEF09F0B6EF09F0010EAC
:10131E00406E96EF09F0D8903E363F36402A3FAEEB
:10132E009BEF09F09DEF09F092EF09F0D89042364D
:10133E0043363E503C5C3F503D58D8A0A9EF09F0D3
:10134E00ABEF09F0B0EF09F03E503C5E3F503D5A16
:10135E004280D8903F323E32402E9DEF09F04150F0
:10136E00D8B4BCEF09F0BEEF09F0C2EF09F0426C41
:10137E00431ED8B0432A42C03CF043C03DF0120099
:10138E00416A3DBECFEF09F0CDEF09F0D5EF09F080
:10139E003C6C3D1ED8B03D2A010E416E3FBEDCEFC7
:1013AE0009F0DAEF09F0E0EF09F03E6C3F1ED8B01D
:1013BE003F2A3E503F10D8B4E7EF09F0E9EF09F0AD
:1013CE000DEF0AF0010E406EF1EF09F0D8903E36A7
:1013DE003F36402A3FAEF6EF09F0F8EF09F0EDEF99
:1013EE0009F03E503C5C3F503D58D8A001EF0AF04A
:1013FE0003EF0AF007EF0AF03E503C5E3F503D5AB5
:10140E00D8903F323E32402EF8EF09F04150D8B41A
:10141E0013EF0AF015EF0AF019EF0AF03C6C3D1EBF
:10142E00D8B03D2A3CC03CF03DC03DF01200B7ECB8
:10143E000DF0F28EF28CF28CFC0E3C6E1A0E3D6E9E
:10144E0004EC0EF04A0E3C6E1B0E3D6EFAEC0DF0E7
:10145E0026EC0EF022EC0EF028EC0EF024EC0EF042
:10146E003FEC0DF0A9EC0BF0850E3C6E010E3D6EBF
:10147E00E2EC0DF0520E3C6E1CEC0BF00001FD5137
:10148E000DE1400EFA5D420EFB590F0EFC59D8A02D
:10149E0053EF0AF055EF0AF05DEF0AF0000EFA6F07
:1014AE00000EFB6F000EFC6F000EFD6F3F0E5264C0
:1014BE0063EF0AF065EF0AF067EF0AF0400E526E26
:1014CE0085C14DF086C14EF04F6A506A52501FECE6
:1014DE0008F039EF0AF08DEF00F02950010FD96EA8
:1014EE00DA6ADF50316E8C6A899C899E8A9E080E5C
:1014FE00296084EF0AF086EF0AF0A9EF0AF08B9AC2
:10150E0029C030F0D8903032D890303230A092EFDF
:10151E000AF094EF0AF095EF0AF08A8E29C030F0A7
:10152E00D890303230A09EEF0AF0A0EF0AF0A1EF73
:10153E000AF0898E29A0A6EF0AF0A8EF0AF0A9EF0B
:10154E000AF0898C080E2918D8A4B0EF0AF0B2EF71
:10155E000AF0B3EF0AF08B8A3150310F306E30C083
:10156E00F6FF100EF76EF86A0800F5CF8CFF292AE9
:10157E00080E2964C5EF0AF0C7EF0AF0C8EF0AF0AB
:10158E00296A1200000E0101806F000E816F000E9D
:10159E00826F000E836F49504A104B104C10D8B416
:1015AE00DBEF0AF0DDEF0AF013EF0BF0010E846FA4
:1015BE00E7EF0AF0D89049364A364B364C36842B34
:1015CE004CAEECEF0AF0EEEF0AF0E1EF0AF0D89035
:1015DE0080378137823783374950455C4A504658A9
:1015EE004B5047584C504858D8A000EF0BF002EF24
:1015FE000BF00BEF0BF04950455E4A50465A4B50DC
:10160E00475A4C50485A8081D8904C324B324A320D
:10161E004932842FEEEF0AF080C145F081C146F0C9
:10162E0082C147F083C148F012003C50D96EDA6A8D
:10163E003D6AE7A101D03D8E800E3D16E6C03EF01C
:10164E00060E3F6ED8903E363F2E29EF0BF0400E21
:10165E003E16E5C040F0050E416ED8904036412E44
:10166E0034EF0BF0200E4016E4C042F0423AF00E7A
:10167E004216100E4216E3C043F0D8904336D8906F
:10168E004336D8904336080E4316E2C044F0D89045
:10169E004436D8904436040E44160001D890E135F5
:1016AE00456E020E4516E051010B451044104310D5
:1016BE00421040103E103D10DF6E1200405041109F
:1016CE0042104310D8B46EEF0BF070EF0BF0A0EF9A
:1016DE000BF0010E446E7AEF0BF0D8904036413687
:1016EE0042364336442A43AE7FEF0BF081EF0BF0C8
:1016FE0074EF0BF040503C5C41503D5842503E5808
:10170E0043503F58D8A08EEF0BF090EF0BF098EFB0
:10171E000BF040503C5E41503D5A42503E5A4350B1
:10172E003F5AD8904332423241324032442E81EFFA
:10173E000BF03CC03CF03DC03DF03EC03EF03FC023
:10174E003FF01200416A415011EC0CF0000E3D6E5C
:10175E00050E3C6E28EC0DF0000E3C6E000E6BEC90
:10176E000CF03CC00AF03DC00BF0210E0A5C030EDB
:10177E000B58D8A0C5EF0BF0C7EF0BF0CFEF0BF067
:10178E004150E00FD96EDA6A010EDF6ED4EF0BF026
:10179E004150E00FD96EDA6ADF6A412A070E4164C2
:1017AE00DBEF0BF0DDEF0BF0AAEF0BF01200400EAB
:1017BE00F66E1C0EF76E000EF86E00EEFAF010EEDE
:1017CE0004F00900F5CFEEFFE550E150FAE1540EBA
:1017DE00F66E1C0EF76E000EF86E0900F5CF51F086
:1017EE000900F5CF52F001EE00F0800EEE6AE80629
:1017FE00FDE100EE60F0900EEE6AE806FDE100EE0F
:10180E0001F02F0EEE6AE806FDE1539053920001AF
:10181E001EEF0AF03D6E3DA017EF0CF019EF0CF025
:10182E001CEF0CF08D801DEF0CF08D903DC03CF048
:10183E00D8903C323CA026EF0CF028EF0CF02BEFAA
:10184E000CF08D822CEF0CF08D923DC03CF0D890B8
:10185E003C32D8903C323CA037EF0CF039EF0CF014
:10186E003CEF0CF08D843DEF0CF08D9412009D9AA0
:10187E00F40E0001F66F110EF76F9D981C0EF86FA7
:10188E001A0EF96F480EA76E900EAB6E260EAC6E4A
:10189E00CF0EAF6E7D6A5A0E3C6E1C0E3D6ED4ECB2
:1018AE000DF03A0E3C6E1C0E3D6EC6EC0DF0000EA9
:1018BE00196E000E186E2F6A2E6A400E2D6E2C6A4F
:1018CE002B6A2A6A9D8A1200406E40C03EF03E4648
:1018DE003E46C2503E18830B3E18C26EC1503C1895
:1018EE00F80B3C18C16EC280050EE82EFED7000024
:1018FE00C282C2B285EF0CF087EF0CF080EF0CF0D5
:10190E00C4503F6E3E6AC3503E243C6E000E3F20D4
:10191E003D6E1200D08EF1849F809F889F8AF29236
:10192E00F18C000E3C6E000E3D6E18EC0EF0F09039
:10193E00F18A000E3C6E000E3D6E13EC0EF0F0922E
:10194E00F188000E3C6E000E3D6E0EEC0EF0F09423
:10195E00F186000E3C6E000E3D6E09EC0EF012008C
:10196E009E901CC030F01DC031F06AEC0DF00001ED
:10197E00F251F311D8B4C6EF0CF0C8EF0CF0D4EF5F
:10198E000CF002D8D4EF0CF00500FA6EF251FD6E99
:10199E00F351FE6EFF6AFA5012001200CD909E0EA9
:1019AE00CF6E580ECE6ECF503E6ECE501C6E3EC0D9
:1019BE001DF0AA6A560E3C6E1C0E3D6EFAEC0DF032
:1019CE00000E3C6E000E3D6EFFEC0DF09E909D8065
:1019DE00370ECD6E12001F50D76E1EC0D6FF0001FF
:1019EE00F451F511D8B4FEEF0CF000EF0DF00CEF42
:1019FE000DF002D80CEF0DF00500FA6EF451FD6EED
:101A0E00F551FE6EFF6AFA501200F2941200400E6B
:101A1E002D6014EF0DF016EF0DF026EF0DF0400EC9
:101A2E002E24D96EDA6A010EDA22DF50AD6E2E2820
:101A3E003F0B306E30C02EF02D2A27EF0DF09D9803
:101A4E00120031EF0DF0030E3E6E980EE82EFED70B
:101A5E003E2EFCD73C06D8A03D063C2806E13D288C
:101A6E00D8A43CEF0DF03EEF0DF02AEF0DF0120072
:101A7E008B9A0A0E016E0A0E026E0A0E036E0A0E83
:101A8E00046E0A0E056E0A0E066E0A0E076E0A0E1A
:101A9E00086E0A0E096E296A070E286E1200896AF0
:101AAE008A6A200E8B6E8C6A8D6A010E926E1F0EE4
:101ABE00936E800E946E956A966A1F0E0F015B6F81
:101ACE005A6BF2861200CDA46FEF0DF071EF0DF090
:101ADE0079EF0DF0CD903150CF6E30C0CEFFCD806E
:101AEE007DEF0DF03150CF6E30C0CEFF12000E4A9A
:101AFE000F2AF50E0E5C010E0F58D8A089EF0DF0CF
:101B0E008BEF0DF08FEF0DF0000E0F6E000E0E6EC0
:101B1E0074EC0AF01200D59CD768F10ED66EFF0E4B
:101B2E001F6EF10E1E6E580E3C6E1C0E3D6E04ECBA
:101B3E000EF0F294F28A970ED56E12000C4A0D2A10
:101B4E000D5009E1330E0C5CD8A0B0EF0DF0B2EFE2
:101B5E000DF0B6EF0DF0000E0D6E000E0C6E1200B5
:101B6E00F4EC0DF056EC0DF092EC0DF0D5EC0CF013
:101B7E003EEC0CF0EBEC0DF091EC0CF012003C5046
:101B8E003D10D8B4CDEF0DF0CFEF0DF0D3EF0DF03B
:101B9E003CC010F03DC011F012003C503D10D8B4C6
:101BAE00DBEF0DF0DDEF0DF0E1EF0DF03CC012F0CC
:101BBE003DC013F012003CC0D9FF3DC0DAFF0AC091
:101BCE00DEFF0BC0DDFF1200C16A060EC06EC36AD7
:101BDE00C46A010EC26E9E9C1200620ED36ED26A51
:101BEE009B6A9A6A12003CC0F2F03DC0F3F01200FC
:101BFE003CC0F0F03DC0F1F012003CC0F4F03DC02E
:101C0E00F5F012003CC020F03DC021F012003CC0A7
:101C1E0022F03DC023F012003CC024F03DC025F060
:101C2E0012003CC026F03DC027F01200AB98AB88E6
:101C3E0012004E4605009D801200CD801200F28AE1
:0E1C4E001200D58E12000C0C120012001200B3
:020000040030CA
:0E0000001D086F50FF8991FF0FC00FE00F40E9
:00000001FF
