:040000008DEF00F090
:100008005382FACF30F0FBCF31F0D9CF32F0DACFCC
:1000180033F0F3CF34F0F4CF35F0F6CF36F0F7CF36
:1000280037F0F8CF38F0F5CF39F0F2AA1EEF00F02C
:1000380020EF00F02BEF00F0F2A425EF00F027EFFF
:1000480000F02BEF00F0E5EC0CF077EF00F09DA04E
:1000580030EF00F032EF00F03DEF00F09EA037EFF8
:1000680000F039EF00F03DEF00F0AAEC0CF077EF6C
:1000780000F09DA842EF00F044EF00F05AEF00F0C6
:100088009EA849EF00F04BEF00F05AEF00F002D8BD
:1000980058EF00F00500FA6E0001F851FD6EF951B5
:1000A800FE6EFF6AFA50120077EF00F09DAA5FEF2C
:1000B80000F061EF00F077EF00F09EAA66EF00F025
:1000C80068EF00F077EF00F002D875EF00F0050058
:1000D800FA6E0001F651FD6EF751FE6EFF6AFA5096
:1000E800120077EF00F039C0F5FF38C0F8FF37C0CD
:1000F800F7FF36C0F6FF35C0F4FF34C0F3FF33C056
:10010800DAFF32C0D9FF31C0FBFF30C0FAFF53928B
:060118001100D1EF0BF015
:101000000062180000000000000000000000000066
:1010100000000000000000000000000000000000D0
:101020000000000000000000008E1B721B0000008A
:0D103000003F065B4F666D7D077F4F00009F
:10103E00506E50C03AF03B6A000E3D6E0A0E3C6E8A
:10104E00E8EC09F03A50026E50C03AF03B6A000EDE
:10105E003D6E0A0E3C6E49EC0AF03A50016E80C1AC
:10106E0043F081C144F082C145F083C146F0A00E29
:10107E00476E860E486E010E496E000E4A6EF5ECF6
:10108E000AF04350096EA00E3E6E860E3F6E010EA4
:10109E00406E000E416E80C13AF081C13BF082C1BC
:1010AE003CF083C13DF08DEC0BF03AC043F03BC0F9
:1010BE0044F03CC045F03DC046F0100E476E270E82
:1010CE00486E000E496E000E4A6EF5EC0AF0435063
:1010DE00086E100E3E6E270E3F6E000E406E000E16
:1010EE00416E80C13AF081C13BF082C13CF083C1B8
:1010FE003DF08DEC0BF03AC043F03BC044F03CC0E9
:10110E0045F03DC046F0E80E476E030E486E000EE9
:10111E00496E000E4A6EF5EC0AF04350076EE80E6B
:10112E003E6E030E3F6E000E406E000E416E80C18D
:10113E003AF081C13BF082C13CF083C13DF08DECB1
:10114E000BF03AC043F03BC044F03CC045F03DC00C
:10115E0046F0640E476E000E486E000E496E000E8D
:10116E004A6EF5EC0AF04350066E640E3E6E000EAB
:10117E003F6E000E406E000E416E80C13AF081C18E
:10118E003BF082C13CF083C13DF08DEC0BF03AC0D8
:10119E0043F03BC044F03CC045F03DC046F00A0E63
:1011AE00476E000E486E000E496E000E4A6EF5EC4C
:1011BE000AF04350056E80C13AF081C13BF082C106
:1011CE003CF083C13DF00A0E3E6E000E3F6E000EE7
:1011DE00406E000E416E8DEC0BF03A50046E0A0E0E
:1011EE00036E1200AAEC0DF0F28EF28CF28CE20E6F
:1011FE003A6E1A0E3B6EEEEC0DF0300E3A6E1B0E82
:10120E003B6EE4EC0DF010EC0EF00CEC0EF012EC6C
:10121E000EF00EEC0EF01BEC0DF00101866B8651FC
:10122E0004EC0CF0000E3B6E050E3A6E32EC0DF037
:10123E00000E3A6E000E84EC0CF03AC084F13BC006
:10124E0085F1210E0101845D030E8559D8A032EF80
:10125E0009F034EF09F03CEF09F08651E00FD96E3A
:10126E00DA6A010EDF6E41EF09F08651E00FD96E9A
:10127E00DA6ADF6A862B070E866548EF09F04AEFB9
:10128E0009F016EF09F047EC0BF00001FD510DE1EE
:10129E00400EFA5D420EFB590F0EFC59D8A05AEFC4
:1012AE0009F05CEF09F064EF09F0000EFA6F000E22
:1012BE00FB6F000EFC6F000EFD6F3F0E52646AEF67
:1012CE0009F06CEF09F06EEF09F0400E526E84C11A
:1012DE0080F185C181F10101826B836B52501FEC4D
:1012EE0008F014EF09F08DEF00F02A50020DF350C4
:1012FE00600FD96EDA6ADE6ADD6AABA289EF09F099
:10130E008BEF09F0A8EF09F02A50020DF350600F91
:10131E00D96EDA6A0001DF840E500F10D8B49AEF3E
:10132E0009F09CEF09F0A8EF09F002D8A8EF09F038
:10133E000500FA6E0E50FD6E0F50FE6EFF6AFA50EB
:10134E001200ABA4ADEF09F0AFEF09F0CCEF09F04E
:10135E002A50020DF350600FD96EDA6A0001DF8257
:10136E0010501110D8B4BEEF09F0C0EF09F0CCEF59
:10137E0009F002D8CCEF09F00500FA6E1050FD6EA0
:10138E001150FE6EFF6AFA501200AECF2EF02A28D0
:10139E003F0B2F6E29502F18D8A4D8EF09F0DAEF93
:1013AE0009F0DCEF09F0E7EF09F0000E2A24D96E00
:1013BE00DA6A010EDA222EC0DFFF2FC02AF0282AA9
:1013CE0012003F6A3DBEF0EF09F0EEEF09F0F6EFC6
:1013DE0009F03C6C3D1ED8B03D2A010E3F6E3BBE5F
:1013EE00FDEF09F0FBEF09F003EF0AF03A6C3B1E3C
:1013FE00D8B03B2A010E3F1A000E416E000E406E11
:10140E003C503D10D8B40EEF0AF010EF0AF038EF52
:10141E000AF0010E3E6E18EF0AF0D8903C363D36BB
:10142E003E2A3DAE1DEF0AF01FEF0AF014EF0AF050
:10143E00D890403641363C503A5C3D503B58D8A08F
:10144E002BEF0AF02DEF0AF032EF0AF03C503A5E25
:10145E003D503B5A4080D8903D323C323E2E1FEFDD
:10146E000AF03F50D8B43EEF0AF040EF0AF044EFD6
:10147E000AF0406C411ED8B0412A40C03AF041C03B
:10148E003BF012003F6A3BBE51EF0AF04FEF0AF0FD
:10149E0057EF0AF03A6C3B1ED8B03B2A010E3F6E56
:1014AE003DBE5EEF0AF05CEF0AF062EF0AF03C6CB4
:1014BE003D1ED8B03D2A3C503D10D8B469EF0AF01D
:1014CE006BEF0AF08FEF0AF0010E3E6E73EF0AF02B
:1014DE00D8903C363D363E2A3DAE78EF0AF07AEF94
:1014EE000AF06FEF0AF03C503A5C3D503B58D8A0E2
:1014FE0083EF0AF085EF0AF089EF0AF03C503A5E6E
:10150E003D503B5AD8903D323C323E2E7AEF0AF097
:10151E003F50D8B495EF0AF097EF0AF09BEF0AF020
:10152E003A6C3B1ED8B03B2A3AC03AF03BC03BF077
:10153E0012002750010FD96EDA6ADF502F6E8C6AB7
:10154E00899C899E8A9E080E2760B0EF0AF0B2EF42
:10155E000AF0D5EF0AF08B9A27C02EF0D8902E32D3
:10156E00D8902E322EA0BEEF0AF0C0EF0AF0C1EFD7
:10157E000AF08A8E27C02EF0D8902E322EA0CAEFF7
:10158E000AF0CCEF0AF0CDEF0AF0898E27A0D2EF49
:10159E000AF0D4EF0AF0D5EF0AF0898C080E27185E
:1015AE00D8A4DCEF0AF0DEEF0AF0DFEF0AF08B8A48
:1015BE002F50310F2E6E2EC0F6FF100EF76EF86AFA
:1015CE000800F5CF8CFF272A080E2764F1EF0AF0EA
:1015DE00F3EF0AF0F4EF0AF0276A1200000E4B6EDA
:1015EE00000E4C6E000E4D6E000E4E6E47504810A3
:1015FE0049104A10D8B406EF0BF008EF0BF03EEF8F
:10160E000BF0010E4F6E12EF0BF0D89047364836A6
:10161E0049364A364F2A4AAE17EF0BF019EF0BF048
:10162E000CEF0BF0D8904B364C364D364E364750AD
:10163E00435C48504458495045584A504658D8A0E3
:10164E002BEF0BF02DEF0BF036EF0BF04750435E08
:10165E004850445A4950455A4A50465A4B80D890A1
:10166E004A324932483247324F2E19EF0BF04BC0F7
:10167E0043F04CC044F04DC045F04EC046F0120051
:10168E003A6AE7A101D03A8E800E3A16E6C03BF0D8
:10169E00060E3C6ED8903B363C2E51EF0BF0400EB2
:1016AE003B16E5C03DF0050E3E6ED8903D363E2E03
:1016BE005CEF0BF0200E3D16E4C03FF03F3AF00E0B
:1016CE003F16100E3F16E3C040F0D8904036D8902B
:1016DE004036D8904036080E4016E2C041F0D89001
:1016EE004136D8904136040E41160001D890E135AE
:1016FE00426E020E4216E051010B42104110401094
:10170E003F103D103B103A10526E12003E503F10EB
:10171E0040104110D8B496EF0BF098EF0BF0C8EFD5
:10172E000BF0010E426EA2EF0BF0D8903E363F3614
:10173E0040364136422A41AEA7EF0BF0A9EF0BF02F
:10174E009CEF0BF03E503A5C3F503B5840503C589B
:10175E0041503D58D8A0B6EF0BF0B8EF0BF0C0EFEC
:10176E000BF03E503A5E3F503B5A40503C5A41506F
:10177E003D5AD890413240323F323E32422EA9EF8E
:10178E000BF03AC03AF03BC03BF03CC03CF03DC0E1
:10179E003DF01200140EF66E1C0EF76E000EF86E73
:1017AE0000EEFAF010EE04F00900F5CFEEFFE55072
:1017BE00E150FAE1280EF66E1C0EF76E000EF86E72
:1017CE000900F5CF51F00900F5CF52F001EE00F00F
:1017DE00800EEE6AE806FDE100EE60F0900EEE6A15
:1017EE00E806FDE100EE01F02D0EEE6AE806FDE1E1
:1017FE00539053920001F9EF08F03B6E3BA00AEFB5
:10180E000CF00CEF0CF00FEF0CF08D8010EF0CF0D5
:10181E008D903BC03AF0D8903A323AA019EF0CF0C6
:10182E001BEF0CF01EEF0CF08D821FEF0CF08D9263
:10183E003BC03AF0D8903A32D8903A323AA02AEFDA
:10184E000CF02CEF0CF02FEF0CF08D8430EF0CF031
:10185E008D9412009D9AF80E0001F66F120EF76F1E
:10186E009D98020EF86F1A0EF96F480EA76E900E25
:10187E00AB6E260EAC6ECF0EAF6E7D6A2E0E3A6E2E
:10188E001C0E3B6EC7EC0DF00E0E3A6E1C0E3B6E30
:10189E00B9EC0DF0000E176E000E166E2D6A2C6A46
:1018AE00400E2B6E2A6A296A286A9D8A1200D08EF3
:1018BE00F1849F809F889F8AF292F18C000E3A6E7F
:1018CE00000E3B6E02EC0EF0F090F18A000E3A6EB6
:1018DE00000E3B6EFDEC0DF0F092F188000E3A6EAC
:1018EE00000E3B6EF8EC0DF0F094F186000E3A6EA1
:1018FE00000E3B6EF3EC0DF012003E6E3EC03CF05F
:10190E003C463C46C2503C18830B3C18C26EC1503C
:10191E003A18F80B3A18C16EC280050EE82EFED7A3
:10192E000000C282C2B29EEF0CF0A0EF0CF099EF55
:10193E000CF0C4503D6E3C6AC3503C243A6E000E0F
:10194E003D203B6E12009E901AC02EF01BC02FF051
:10195E005DEC0DF00001F251F311D8B4B9EF0CF0BB
:10196E00BBEF0CF0C7EF0CF002D8C7EF0CF0050080
:10197E00FA6EF251FD6EF351FE6EFF6AFA501200CE
:10198E001200CD909E0ECF6E580ECE6ECF503C6E86
:10199E00CE501A6E3CC01BF0AA6A2A0E3A6E1C0E6E
:1019AE003B6EE4EC0DF0000E3A6E000E3B6EE9EC71
:1019BE000DF09E909D80370ECD6E12001D50D76E8D
:1019CE001CC0D6FF0001F451F511D8B4F1EF0CF0A4
:1019DE00F3EF0CF0FFEF0CF002D8FFEF0CF0050068
:1019EE00FA6EF451FD6EF551FE6EFF6AFA5012005A
:1019FE00F2941200400E2B6007EF0DF009EF0DF080
:101A0E0019EF0DF0400E2C24D96EDA6A010EDA228F
:101A1E00DF50AD6E2C283F0B2E6E2EC02CF02B2AD5
:101A2E001AEF0DF09D9812008B9A0A0E016E0A0E97
:101A3E00026E0A0E036E0A0E046E0A0E056E0A0E72
:101A4E00066E0A0E076E0A0E086E0A0E096E276AD9
:101A5E00070E266E12003BEF0DF0030E3C6E980E35
:101A6E00E82EFED73C2EFCD73A06D8A03B063A28E5
:101A7E0006E13B28D8A446EF0DF048EF0DF034EF09
:101A8E000DF01200896A8A6A200E8B6E8C6A8D6A3E
:101A9E00010E926E1F0E936E800E946E956A966A6C
:101AAE001F0E0F015B6F5A6BF2861200CDA462EF10
:101ABE000DF064EF0DF06CEF0DF0CD902F50CF6E5A
:101ACE002EC0CEFFCD8070EF0DF02F50CF6E2EC0FA
:101ADE00CEFF12000C4A0D2AF50E0C5C010E0D58AD
:101AEE00D8A07CEF0DF07EEF0DF082EF0DF0000E22
:101AFE000D6E000E0C6EA0EC0AF01200D59CD7688D
:101B0E00F10ED66EFF0E1D6EF10E1C6E2C0E3A6E81
:101B1E001C0E3B6EEEEC0DF0F294F28A970ED56E23
:101B2E0012000A4A0B2A0B5009E1330E0A5CD8A0A8
:101B3E00A3EF0DF0A5EF0DF0A9EF0DF0000E0B6E5B
:101B4E00000E0A6E1200DEEC0DF049EC0DF085EC85
:101B5E000DF0C8EC0CF031EC0CF0D5EC0DF05EECA9
:101B6E000CF012003A503B10D8B4C0EF0DF0C2EF9B
:101B7E000DF0C6EF0DF03AC00EF03BC00FF01200A4
:101B8E003A503B10D8B4CEEF0DF0D0EF0DF0D4EFAD
:101B9E000DF03AC010F03BC011F01200C16A060EF3
:101BAE00C06EC36AC46A010EC26E9E9C1200620EA3
:101BBE00D36ED26A9B6A9A6A12003AC0F2F03BC0A8
:101BCE00F3F012003AC0F0F03BC0F1F012003AC050
:101BDE00F4F03BC0F5F012003AC01EF03BC01FF00F
:101BEE0012003AC020F03BC021F012003AC022F0A1
:101BFE003BC023F012003AC024F03BC025F0120087
:101C0E00AB98AB8812004E4605009D801200CD8029
:101C1E001200F28A1200D58E12000C0C1200120065
:021C2E001200A2
:020000040030CA
:0E0000001D086F50FF8991FF0FC00FE00F40E9
:00000001FF
