:040000008DEF00F090
:100008005382FACF2AF0FBCF2BF0D9CF2CF0DACFDE
:100018002DF0F3CF2EF0F4CF2FF0F6CF30F0F7CF4E
:1000280031F0F8CF32F0F5CF33F0F2AA1EEF00F03E
:1000380020EF00F02BEF00F0F2A425EF00F027EFFF
:1000480000F02BEF00F0D2EC0CF077EF00F09DA061
:1000580030EF00F032EF00F03DEF00F09EA037EFF8
:1000680000F039EF00F03DEF00F097EC0CF077EF7F
:1000780000F09DA842EF00F044EF00F05AEF00F0C6
:100088009EA849EF00F04BEF00F05AEF00F002D8BD
:1000980058EF00F00500FA6E0001FD51FD6EFE51AB
:1000A800FE6EFF6AFA50120077EF00F09DAA5FEF2C
:1000B80000F061EF00F077EF00F09EAA66EF00F025
:1000C80068EF00F077EF00F002D875EF00F0050058
:1000D800FA6E0001FB51FD6EFC51FE6EFF6AFA508C
:1000E800120077EF00F033C0F5FF32C0F8FF31C0DF
:1000F800F7FF30C0F6FF2FC0F4FF2EC0F3FF2DC06E
:10010800DAFF2CC0D9FF2BC0FBFF2AC0FAFF53929D
:060118001100DCEF0BF00A
:10100000005E17000000000000000000000000006B
:1010100000000000000000000000000000000000D0
:10102000000000000000000000761B5A1B000000BA
:0D103000003F065B4F666D7D077F4F00009F
:10103E004A6E4AC034F0356A000E376E0A0E366EAE
:10104E006DEC09F034500001E16F4AC034F0356A9E
:10105E00000E376E0A0E366ECEEC09F034500001DB
:10106E00E06F80C13DF081C13EF082C13FF083C18F
:10107E0040F0A00E416E860E426E010E436E000EC3
:10108E00446ED0EC0AF03D500001E86FA00E386EB1
:10109E00860E396E010E3A6E000E3B6E80C134F034
:1010AE0081C135F082C136F083C137F06BEC0BF0A5
:1010BE0034C03DF035C03EF036C03FF037C040F092
:1010CE00100E416E270E426E000E436E000E446EE1
:1010DE00D0EC0AF03D500001E76F100E386E270E6F
:1010EE00396E000E3A6E000E3B6E80C134F081C137
:1010FE0035F082C136F083C137F06BEC0BF034C0A3
:10110E003DF035C03EF036C03FF037C040F0E80E3F
:10111E00416E030E426E000E436E000E446ED0EC16
:10112E000AF03D500001E66FE80E386E030E396E80
:10113E00000E3A6E000E3B6E80C134F081C135F068
:10114E0082C136F083C137F06BEC0BF034C03DF04A
:10115E0035C03EF036C03FF037C040F0640E416EF1
:10116E00000E426E000E436E000E446ED0EC0AF07E
:10117E003D500001E56F640E386E000E396E000EA4
:10118E003A6E000E3B6E80C134F081C135F082C1E3
:10119E0036F083C137F06BEC0BF034C03DF035C048
:1011AE003EF036C03FF037C040F00A0E416E000EE2
:1011BE00426E000E436E000E446ED0EC0AF03D50AF
:1011CE000001E46F80C134F081C135F082C136F088
:1011DE0083C137F00A0E386E000E396E000E3A6E6D
:1011EE00000E3B6E6BEC0BF034500001E36F0A0EF9
:1011FE00E26F12002450020DF350600FD96EDA6ABE
:10120E00DE6ADD6AABA20EEF09F010EF09F02DEFEA
:10121E0009F02450020DF350600FD96EDA6A000106
:10122E00DF8407500810D8B41FEF09F021EF09F042
:10123E002DEF09F002D82DEF09F00500FA6E0750D8
:10124E00FD6E0850FE6EFF6AFA501200ABA432EF2C
:10125E0009F034EF09F051EF09F02450020DF3506C
:10126E00600FD96EDA6A0001DF8209500A10D8B415
:10127E0043EF09F045EF09F051EF09F002D851EFB5
:10128E0009F00500FA6E0950FD6E0A50FE6EFF6AF7
:10129E00FA501200AECF28F024283F0B296E2350AF
:1012AE002918D8A45DEF09F05FEF09F061EF09F09E
:1012BE006CEF09F0000E2424D96EDA6A010EDA22E0
:1012CE0028C0DFFF29C024F0222A1200396A37BE57
:1012DE0075EF09F073EF09F07BEF09F0366C371EEE
:1012EE00D8B0372A010E396E35BE82EF09F080EF85
:1012FE0009F088EF09F0346C351ED8B0352A010E8E
:10130E00391A000E3B6E000E3A6E36503710D8B4B6
:10131E0093EF09F095EF09F0BDEF09F0010E386E6D
:10132E009DEF09F0D89036363736382A37AEA2EF11
:10133E0009F0A4EF09F099EF09F0D8903A363B3650
:10134E003650345C37503558D8A0B0EF09F0B2EFB4
:10135E0009F0B7EF09F03650345E3750355A3A80FF
:10136E00D89037323632382EA4EF09F03950D8B42F
:10137E00C3EF09F0C5EF09F0C9EF09F03A6C3B1E57
:10138E00D8B03B2A3AC034F03BC035F01200396A6F
:10139E0035BED6EF09F0D4EF09F0DCEF09F0346C6E
:1013AE00351ED8B0352A010E396E37BEE3EF09F07F
:1013BE00E1EF09F0E7EF09F0366C371ED8B0372AA7
:1013CE0036503710D8B4EEEF09F0F0EF09F014EF05
:1013DE000AF0010E386EF8EF09F0D890363637362F
:1013EE00382A37AEFDEF09F0FFEF09F0F4EF09F000
:1013FE003650345C37503558D8A008EF0AF00AEF53
:10140E000AF00EEF0AF03650345E3750355AD89047
:10141E0037323632382EFFEF09F03950D8B41AEF82
:10142E000AF01CEF0AF020EF0AF0346C351ED8B02B
:10143E00352A34C034F035C035F01200C9EC0DF049
:10144E00F28EF28CF28CEE0E346E180E356EE6ECD9
:10145E000DF0360E346E1B0E356EDCEC0DF009EC15
:10146E000EF005EC0EF00BEC0EF007EC0EF007ECA8
:10147E000DF036EC0DF0840E346E010E356E60EC10
:10148E000DF0500E346E22EC0BF04E500DE1400E6E
:10149E004B5C420E4C580F0E4D58D8A059EF0AF027
:1014AE005BEF0AF063EF0AF0000E4B6E000E4C6E0F
:1014BE00000E4D6E000E4E6E3F0E506469EF0AF038
:1014CE006BEF0AF06DEF0AF0400E506E84C180F1A2
:1014DE0085C181F10101826B836B50501FEC08F0C6
:1014EE0040EF0AF08DEF00F02050E00FD96EDA6A6F
:1014FE00DF50296E8C6A899C899E8A9E080E206018
:10150E008BEF0AF08DEF0AF0B0EF0AF08B9A20C045
:10151E0028F0D8902832D890283228A099EF0AF0D7
:10152E009BEF0AF09CEF0AF08A8E20C028F0D8902C
:10153E00283228A0A5EF0AF0A7EF0AF0A8EF0AF0CC
:10154E00898E20A0ADEF0AF0AFEF0AF0B0EF0AF0EF
:10155E00898C080E2018D8A4B7EF0AF0B9EF0AF05C
:10156E00BAEF0AF08B8A2950310F286E28C0F6FF89
:10157E00100EF76EF86A0800F5CF8CFF202A080EC1
:10158E002064CCEF0AF0CEEF0AF0CFEF0AF0206A1B
:10159E001200000E456E000E466E000E476E000ED7
:1015AE00486E4150421043104410D8B4E1EF0AF097
:1015BE00E3EF0AF019EF0BF0010E496EEDEF0AF0B2
:1015CE00D8904136423643364436492A44AEF2EF7D
:1015DE000AF0F4EF0AF0E7EF0AF0D89045364636F7
:1015EE004736483641503D5C42503E5843503F5876
:1015FE0044504058D8A006EF0BF008EF0BF011EF57
:10160E000BF041503D5E42503E5A43503F5A4450BB
:10161E00405A4580D8904432433242324132492EAC
:10162E00F4EF0AF045C03DF046C03EF047C03FF033
:10163E0048C040F012003450D96EDA6A356AF0A113
:10164E0001D0358E800E3516EFC036F0060E376E91
:10165E00D8903636372E2FEF0BF0400E3616EEC0E2
:10166E0038F0050E396ED8903836392E3AEF0BF029
:10167E00200E3816EDC03AF03A3AF00E3A16100E29
:10168E003A16ECC03BF0D8903B36D8903B36D8900B
:10169E003B36080E3B16EBC03CF0D8903C36D8904B
:1016AE003C36040E3C160001D890EA353D6E020E13
:1016BE003D16E951010B3D103C103B103A1038100D
:1016CE0036103510DF6E1200385039103A103B10BC
:1016DE00D8B474EF0BF076EF0BF0A6EF0BF0010E13
:1016EE003C6E80EF0BF0D890383639363A363B36B2
:1016FE003C2A3BAE85EF0BF087EF0BF07AEF0BF049
:10170E003850345C395035583A5036583B5037586B
:10171E00D8A094EF0BF096EF0BF09EEF0BF0385035
:10172E00345E3950355A3A50365A3B50375AD89063
:10173E003B323A32393238323C2E87EF0BF034C01E
:10174E0034F035C035F036C036F037C037F0120001
:10175E009D9A020E0001FB6F120EFC6F9D98DA0E21
:10176E00FD6F190EFE6F480EA76E900EAB6E260E15
:10177E00AC6ECF0EAF6E7D6A1E0E346E1C0E356EC5
:10178E00BBEC0DF0040E346E1C0E356EADEC0DF090
:10179E00000E106E000E0F6E276A266A400E256E22
:1017AE00246A236A226A9D8A1200FE0EF66E1B0EB2
:1017BE00F76E000EF86E00EE4BF010EE06F009001C
:1017CE00F5CFEEFFE550E150FAE101EE00F0800EAC
:1017DE00EE6AE806FDE100EE60F0990EEE6AE806AC
:1017EE00FDE100EE01F0270EEE6AE806FDE15390F2
:1017FE005392000125EF0AF0356E8D908D928D94E7
:10180E0035A00CEF0CF00EEF0CF00FEF0CF08D80FE
:10181E0035C034F0D890343234A018EF0CF01AEFF3
:10182E000CF01BEF0CF08D8235C034F0D8903432B2
:10183E00D890343234A026EF0CF028EF0CF029EFBC
:10184E000CF08D841200296E8D908D928D9429A0AE
:10185E0033EF0CF035EF0CF036EF0CF08D8029C025
:10186E0028F0D890283228A03FEF0CF041EF0CF072
:10187E0042EF0CF08D8229C028F0D8902832D890F3
:10188E00283228A04DEF0CF04FEF0CF050EF0CF07B
:10189E008D841200D08EF1849F809F889F8AF29251
:1018AE00F18C000E346E000E356EFAEC0DF0F090E9
:1018BE00F18A000E346E000E356EF5EC0DF0F092DE
:1018CE00F188000E346E000E356EF0EC0DF0F094D3
:1018DE00F186000E346E000E356EEBEC0DF012003C
:1018EE00054A062A065009E1330E055CD8A082EFA0
:1018FE000CF084EF0CF08BEF0CF04BEC0DF0212A7A
:10190E00000E066E000E056E7BEC0AF0070E2164CB
:10191E0093EF0CF095EF0CF096EF0CF0216A12009D
:10192E009E9013C028F014C029F074EC0DF0000145
:10193E00F951FA11D8B4A6EF0CF0A8EF0CF0B4EFF1
:10194E000CF002D8B4EF0CF00500FA6EF951FD6EF2
:10195E00FA51FE6EFF6AFA5012001200CD909E0EE2
:10196E00CF6E580ECE6ECF50366ECE50136E36C032
:10197E0014F0AA6A1A0E346E1C0E356EDCEC0DF0E5
:10198E00000E346E000E356EE1EC0DF09E909D80D3
:10199E00370ECD6E12001650D76E15C0D6FF5150B1
:1019AE005210D8B4DDEF0CF0DFEF0CF0EBEF0CF0D3
:1019BE0002D8EBEF0CF00500FA6E5150FD6E52504E
:1019CE00FE6EFF6AFA501200F2941200400E25606D
:1019DE00F3EF0CF0F5EF0CF005EF0DF0400E2624B2
:1019EE00D96EDA6A010EDA22DF50AD6E26283F0B71
:1019FE00286E28C026F0252A06EF0DF09D981200BD
:101A0E008B9A0A0E0001E06F0A0EE16F0A0EE26F6A
:101A1E000A0EE36F0A0EE46F0A0EE56F0A0EE66F0A
:101A2E000A0EE76F0A0EE86F206A070E1F6E12008D
:101A3E00896A8A6A200E8B6E8C6A8D6A010E926E8E
:101A4E001F0E936E800E946E956A966A0F015D6BF3
:101A5E005C6B1F0E5B6FF18E5A6BF286120021507B
:101A6E0003EC0CF02150E90FD96EDA6A80B042EF28
:101A7E000DF045EF0DF0010E46EF0DF0000EDF6E8E
:101A8E000001EF6BF06B120021502AEC0CF021508C
:101A9E00E90FD96EDA6A80B057EF0DF05AEF0DF0FC
:101AAE00010E5BEF0DF0000EDF6E0001EF6BF06BC1
:101ABE00120080B065EF0DF068EF0DF0010E69EFCA
:101ACE000DF0000E366E376A34C0D9FF35C0DAFF1E
:101ADE0036C0DEFF37C0DDFF1200CDA479EF0DF06A
:101AEE007BEF0DF083EF0DF0CD902950CF6E28C017
:101AFE00CEFFCD8087EF0DF02950CF6E28C0CEFFE0
:101B0E001200D59CD768F10ED66EFF0E166EF10E32
:101B1E00156E1C0E346E1C0E356EE6EC0DF0F29446
:101B2E00F28A970ED56E1200034A042A045009E178
:101B3E00330E035CD8A0A6EF0DF0A8EF0DF0ACEFBE
:101B4E000DF0000E046E000E036E120034503510B0
:101B5E00D8B4B4EF0DF0B6EF0DF0BAEF0DF034C00F
:101B6E0007F035C008F0120034503510D8B4C2EF6B
:101B7E000DF0C4EF0DF0C8EF0DF034C009F035C014
:101B8E000AF01200D6EC0DF01FEC0DF088EC0DF003
:101B9E00B5EC0CF0AFEC0BF051EC0CF01200620E49
:101BAE00D36ED26A9B6A9A6A120034C0F9F035C0BD
:101BBE00FAF0120034C086F135C087F1120034C03D
:101BCE0051F035C052F0120034C017F035C018F085
:101BDE00120034C019F035C01AF0120034C01BF0D8
:101BEE0035C01CF0120034C01DF035C01EF01200BE
:101BFE004E4605000C0CAB98AB8812009D8012006F
:101C0E00CD801200F28A1200D58E12001200120040
:021C1E001200B2
:020000040030CA
:0E0000001D086F50FF8991FF0FC00FE00F40E9
:00000001FF
